:100000000C9472000C9493000C9493000C94930045
:100010000C9493000C9493000C9493000C94930014
:100020000C9493000C9493000C9493000C94930004
:100030000C9493000C9493000C9493000C949300F4
:100040000C9493000C9493000C9493000C949300E4
:100050000C9493000C9493000C9493000C949300D4
:100060000C9493000C9493000C9493000C949300C4
:100070000C9493000C9493000C9493000C949300B4
:100080000C9493000C9493000C9493000C949300A4
:100090000C9421020C9456020C9493000C9493003F
:1000A0000C9493000C9493000C9493000C94930084
:1000B0000C9493000C9493000C9493000C94930074
:1000C0000C9493000C9493000C9493000C94930064
:1000D0000C9493000C9493000C9493000C94930054
:1000E0000C94930011241FBECFEFD1E2DEBFCDBF31
:1000F00000E00CBF12E0A0E0B2E0E8E7FFE000E0C3
:100100000BBF02C007900D92A434B107D9F726E0C7
:10011000A4E4B2E001C01D92A235B207E1F70E944B
:10012000CB020C94BA070C9400000F931F93CF934B
:10013000DF93EC01FC0101900020E9F731978F017A
:10014000081B190B1016110664F4080F191F69918A
:1001500080915006909151060E94DA01C017D10794
:10016000B1F7DF91CF911F910F91089584B18FEF77
:1001700084B9089511B80895ECE7F0E080818064B7
:100180008083EAE7F0E0808187688083089590911A
:100190007C00987F8770892B80937C0080917A0007
:1001A000876480937A0080917A0086FDFCCF8091ED
:1001B0007800909179000895EF92FF920F931F932A
:1001C000CF93DF93EC019881E0E0F0E09B3339F1CD
:1001D0009A3309F444C0E130F10509F44AC0E23031
:1001E000F10564F1E230F10509F452C0E330F105A4
:1001F00069F778012196F70191937F01DE018F0164
:1002000099919B3361F0E4E0F0E09A3351F1F7010A
:1002100091937F01DE018F0199919B33A1F7FB013F
:100220001082FA011082F9011082F8011082DF9128
:10023000CF911F910F91FF90EF900895309731F675
:100240007B012196F70191937F01DE01BF01999116
:100250009B3329F3E1E0F0E09A33A1F702C0319635
:10026000DE01ED01219611969C91E130F10509F036
:10027000B6CF7A012196F70191937F01DE01AF019C
:1002800099919B3361F2E2E0F0E09A33A1F7E9CF74
:1002900079012196F70191937F01DE019F019991E8
:1002A0009B3309F4BCCFE3E0F0E09A3399F7D9CF60
:1002B000DC01FB019C918081992371F098130CC0A3
:1002C000119603C0F901981307C09F012F5F3F4F9C
:1002D0009D9181819111F6CF981B892F0895CF931D
:1002E000DF93FC011082EC0108C08A3071F08D3080
:1002F00061F0882351F08993188280915006909183
:1003000051060E94FF018F3F81F7DF91CF91089541
:100310008DEF8093800081EC8093B00089E0809322
:10032000810081E08093B1008FEF8093B3008093D0
:100330008A008093880080938C00089510924D0667
:1003400010924C06109244041092450410924604F8
:100350001092470610924806109249061092CD005E
:1003600087E68093CC0086E08093CA0088E980937A
:10037000C900789484E492E0089580E091E00895C3
:1003800080E091E008958B5F9B4FFC01808190E0BD
:1003900008958E5F9D4FFC01808190E008958E5FEF
:1003A0009D4FFC01908120E031E0A901491B5109DA
:1003B000CA010895CF93DF939C01EC01CE5FDD4F1E
:1003C0008881F894D901AF5FBD4F9C91E92FF0E08F
:1003D000EE0FFF1FE20FF31F70E0718360838C91BB
:1003E0008F5F8C938C9188818F5F88837894E9EC00
:1003F000F0E0808180628083DF91CF910895CF9378
:10040000DF939C01EC01CB5FDB4F88818823E9F30C
:10041000F894D901AD5FBB4F9C91E92FF0E0EE0F4E
:10042000FF1FE20FF31FED5FFD4F80819C919F5FE7
:100430009C939C919881915098837894DF91CF916F
:1004400008951F920F920FB60F9211240BB60F92C0
:100450008F939F93AF93BF93CF93DF93EF93FF93CC
:100460008091CE00C9E4D6E09881A8E4B6E0EC9192
:10047000F0E0EE0FFF1FE95BFB4F90E0918380837C
:100480008C918F5F8C938C9188818F5F8883FF9193
:10049000EF91DF91CF91BF91AF919F918F910F908D
:1004A0000BBE0F900FBE0F901F9018951F920F92CA
:1004B0000FB60F9211240BB60F928F93EF93FF9309
:1004C00080914604882301F1E0914404F0E0EE0FAE
:1004D000FF1FEC5BFD4F80818093CE008091440430
:1004E0008F5F80934404809144048091460481503E
:1004F00080934604FF91EF918F910F900BBE0F9068
:100500000FBE0F901F9018958091C9008F7D80932A
:10051000C900F0CF1092C50087E68093C40086E042
:100520008093C20088E98093C10008959091C00033
:1005300095FFFCCF8093C60008958091C00087FF8F
:10054000FCCF8091C6000895FC012081222351F048
:1005500031969091C00095FFFCCF2093C600219169
:100560002111F7CF0895FC019091C00097FFFCCFB7
:100570009091C6009A3031F09D3021F0992339F0E6
:100580009193F2CF11929E2F981B892F08959E2F41
:10059000981B892F0895CF93DF93CDB7DEB7C55051
:1005A000D6400FB6F894DEBF0FBECDBF40E855E28F
:1005B00060E070E080E092E00E949E01909351061E
:1005C000809350060E948A02CE018F5F9A4F0E944C
:1005D0006F01BE016F5F7A4FCE018F5F9B4F0E940C
:1005E000C20487E092E00E94A402CE018F5F9B4F7D
:1005F0000E94A40284B18FEF84B911B890917C005D
:10060000906490937C0090917A00976890937A0020
:100610009DEF9093800091EC9093B00099E09093BF
:10062000810091E09093B1008093B30080938A00A1
:100630008093880080938C008E010F5F194F88246F
:100640008394912C8AE192E00E94A402CF5FDA4F5A
:100650001882C150D540AE014F5F5A4F7A010AC08F
:100660008A3081F08D3071F0882361F0D7018D934D
:100670007D011C9280915006909151060E94FF01CD
:100680008F3F71F784E292E00E94A402CE018F5F57
:100690009A4F0E94A402CF5FDA4F8881C150D540A3
:1006A00020E030E0BE016F5F7E4FFE01EF5FFD4F47
:1006B0007F01AE014F5F5F4F6A01DE01AF5FBC4F4C
:1006C0005D01FD5F8B33E1F18A3309F495C0213080
:1006D000310501F1223031050CF476C022303105AC
:1006E00009F492C02330310569F7AB013196DA0184
:1006F0008D93AD01DF01BA0181918B3309F124E0C3
:1007000030E08A33A1F7FD01319611968C912130AA
:10071000310501F7A6013196DA018D93AD01DF01B4
:100720006A0181918B3361F022E030E08A3359F322
:10073000DA018D93AD01DF016A0181918B33A1F75D
:10074000F5011082D6011C92F7011082DB011C9288
:100750008FE292E00E94A402CE018F5F9E4F0E9422
:100760009B047C01BE016F5F7B4FCE018F5F9C4F6E
:100770000E94B904892B09F065CFCF5FDD4F288136
:10078000C150D24030E020533109898190E0C097B8
:100790008130910509F48FC08230910509F448C079
:1007A000892B09F04FCF243031050CF09BC01E146B
:1007B0001F040CF0ABC035B1C40101C0880F2A95ED
:1007C000EAF7832B85B93ECF2115310509F07ACFA1
:1007D000A5013196DA018D93AD01DF015A018191B6
:1007E0008B3309F4ADCF21E030E08A3399F7FD0176
:1007F000319611968C918BCF2F5F3F4FDF01FD011A
:10080000319611968C9183CFA7013196DA018D93A1
:10081000AD01DF017A0181918B3309F491CF23E09F
:1008200030E08A3399F7FD01319611968C916FCFA4
:1008300080917C00887F2770282B20937C008091FA
:100840007A00876480937A0080917A0086FDFCCFDD
:1008500080917800909179009F938F938EE392E03E
:100860009F938F931F930F930E94D104C8010E94FE
:10087000A402F80101900020E9F731976F01C01A36
:10088000D10A0F900F900F900F900F900F901C14A3
:100890001D040CF0D7CEC00ED11E7801D7016D918A
:1008A0007D0180915006909151060E94DA01EC146E
:1008B000FD04A1F7C7CE02C0880F991F2A95E2F761
:1008C00080934E0620B130E028233923992728173A
:1008D0003907A1F064E780915006909151060E947B
:1008E000DA01B0CE24303105E9F025303105E9F0E8
:1008F00026303105E9F0E0928C00A4CE65E68091C7
:100900005006909151060E94DA019CCE85B1F40107
:1009100002C0EE0FFF1F2A95E2F79F012095822368
:1009200085B990CEE092B3008DCEE09288008ACE59
:10093000E0928A0087CEFC0188279927E8942191CC
:100940002032E9F3293010F02E30C8F32B3241F079
:100950002D3239F4689404C00E94C904820F911D9D
:10096000219120532A30C0F31EF4909581959F4F1A
:100970000895FB01DC018D91019080190110D9F3DC
:10098000990B0895FB01DC0101900D920020E1F725
:1009900008957AE0979F902D879F802D910D1124C7
:1009A00008950F931F93CF93DF93CDB7DEB72E97A4
:1009B0000FB6F894DEBF0FBECDBF0E891F8986E04B
:1009C0008C831A8309838FEF9FE79E838D83AE010B
:1009D000465E5F4F688D798DCE0101960E940005BD
:1009E000EF81F885E00FF11F10822E960FB6F89474
:1009F000DEBF0FBECDBFDF91CF911F910F91089544
:100A00002F923F924F925F926F927F928F929F921E
:100A1000AF92BF92CF92DF92EF92FF920F931F930C
:100A2000CF93DF93CDB7DEB72B970FB6F894DEBF29
:100A30000FBECDBF6C017B018A01FC0117821682BB
:100A4000838181FFCCC1CE0101963C01F6019381E7
:100A5000F70193FD859193FF81917F01882309F42C
:100A6000BAC1853239F493FD859193FF81917F015D
:100A7000853229F4B60190E00E942007E7CF912C3F
:100A8000212C312CFFE1F315D8F08B3279F038F4BA
:100A9000803279F08332A1F4232D20611DC08D3284
:100AA00061F0803369F4232D216016C0832D8260AC
:100AB000382EE32DE4603E2E2AC0F32DF8601DC0D1
:100AC00037FC2DC020ED280F2A3040F08E32B9F4CB
:100AD00036FC81C1232D2064322E19C036FE06C09B
:100AE0008AE0989E200D1124922E11C0EAE02E9EDD
:100AF000200D1124222EF32DF0623F2E08C08C36DB
:100B000021F4832D8068382E02C0883641F4F70125
:100B100093FD859193FF81917F018111B3CF982F30
:100B20009F7D9554933028F40C5F1F4F9FE399836A
:100B30000DC0833631F0833771F0833509F059C029
:100B400021C0F801808189830E5F1F4F8824839420
:100B5000912C530113C02801F2E04F0E511CF801F3
:100B6000A080B18036FE03C0692D70E002C06FEF37
:100B70007FEFC5010E9415074C018201F32DFF771D
:100B80003F2E16C0280122E0420E511CF801A08021
:100B9000B18036FE03C0692D70E002C06FEF7FEFB9
:100BA000C5010E940A074C01F32DF0683F2E820117
:100BB00033FC1BC0822D90E088169906B0F4B60174
:100BC00080E290E00E9420072A94F4CFF50137FCE0
:100BD000859137FE81915F01B60190E00E94200768
:100BE00021102A9421E0821A91088114910471F74E
:100BF000E8C0843611F0893641F5F80137FE07C0A8
:100C000060817181828193810C5F1F4F08C0608178
:100C10007181072E000C880B990B0E5F1F4FF32D6F
:100C2000FF763F2E97FF09C090958095709561954E
:100C30007F4F8F4F9F4FF0683F2E2AE030E0A30197
:100C40000E945C07882E861845C0853731F4232D15
:100C50002F7EB22E2AE030E025C0932D997FB92E49
:100C60008F36C1F018F4883579F0B5C0803719F0A7
:100C7000883721F0B0C0E92FE061BE2EB4FE0DC070
:100C8000FB2DF460BF2E09C034FE0AC0292F266058
:100C9000B22E06C028E030E005C020E130E002C0FE
:100CA00020E132E0F801B7FE07C0608171818281E6
:100CB00093810C5F1F4F06C06081718180E090E0DE
:100CC0000E5F1F4FA3010E945C07882E8618FB2D24
:100CD000FF773F2E36FE0DC0232D2E7FA22E8914C6
:100CE00058F434FE0BC032FC09C0832D8E7EA82E32
:100CF00005C0B82CA32C03C0B82C01C0B92CA4FE8D
:100D00000FC0FE01E80DF11D8081803321F49A2D82
:100D1000997EA92E09C0A2FE06C0B394B39404C064
:100D20008A2D867809F0B394A3FC11C0A0FE06C0FA
:100D3000B21488F4280C922C9B180EC0B21460F4E4
:100D4000B60180E290E00E942007B394F7CFB2147E
:100D500018F42B1802C0982C212CA4FE10C0B60148
:100D600080E390E00E942007A2FE17C0A1FC03C010
:100D700088E790E002C088E590E0B6010CC08A2DBB
:100D8000867859F0A1FE02C08BE201C080E2A7FC88
:100D90008DE2B60190E00E942007891438F4B60174
:100DA00080E390E00E9420079A94F7CF8A94F301A1
:100DB000E80DF11D8081B60190E00E9420078110AE
:100DC000F5CF222009F442CEB60180E290E00E94E5
:100DD00020072A94F6CFF6018681978102C08FEF13
:100DE0009FEF2B960FB6F894DEBF0FBECDBFDF91FD
:100DF000CF911F910F91FF90EF90DF90CF90BF9018
:100E0000AF909F908F907F906F905F904F903F90AA
:100E10002F900895FC010590615070400110D8F7A3
:100E2000809590958E0F9F1F0895FC016150704032
:100E300001900110D8F7809590958E0F9F1F08950F
:100E40000F931F93CF93DF93FB01238121FD03C0F9
:100E50008FEF9FEF2CC022FF16C04681578124815F
:100E600035814217530744F4A081B1819D012F5F62
:100E70003F4F318320838C93268137812F5F3F4FF3
:100E80003783268314C08B01EC01FB010084F185BC
:100E9000E02D1995892BE1F6D80116968D919C913C
:100EA0001797019617969C938E931697CE01DF9114
:100EB000CF911F910F910895FA01AA27283051F17F
:100EC000203181F1E8946F936E7F6E5F7F4F8F4F7B
:100ED0009F4FAF4FB1E03ED0B4E03CD0670F781FDA
:100EE000891F9A1FA11D680F791F8A1F911DA11DBF
:100EF0006A0F711D811D911DA11D20D009F46894F8
:100F00003F912AE0269F11243019305D3193DEF69F
:100F1000CF010895462F4770405D4193B3E00FD055
:100F2000C9F7F6CF462F4F70405D4A3318F0495D40
:100F300031FD4052419302D0A9F7EACFB4E0A69523
:100F40009795879577956795BA95C9F70097610545
:100F5000710508959B01AC010A2E0694579547959B
:100F600037952795BA95C9F7620F731F841F951F90
:080F7000A01D0895F894FFCFC5
:100F7800756172745F30006E6F6D6520646973709F
:100F88006F73697469766F3A0A00617474656E6488
:100F98006F3A0A00617272697661746F3A0A00707A
:100FA800617273696E6720666174746F0A00253018
:040FB800346400009D
:00000001FF
