:100000000C9472000C9493000C9493000C94930045
:100010000C9493000C9493000C9493000C94930014
:100020000C9493000C9493000C9493000C94930004
:100030000C9493000C9493000C9493000C949300F4
:100040000C9493000C9493000C9493000C949300E4
:100050000C9493000C9493000C9493000C949300D4
:100060000C9493000C9421020C9456020C9493006F
:100070000C9493000C9493000C9493000C949300B4
:100080000C9493000C9493000C9493000C949300A4
:100090000C9493000C9493000C9493000C94930094
:1000A0000C9493000C9493000C9493000C94930084
:1000B0000C9493000C9493000C9493000C94930074
:1000C0000C9493000C9493000C9493000C94930064
:1000D0000C9493000C9493000C9493000C94930054
:1000E0000C94930011241FBECFEFD1E2DEBFCDBF31
:1000F00000E00CBF12E0A0E0B2E0E0E2FFE000E0D0
:100100000BBF02C007900D92A831B107D9F726E0C6
:10011000A8E1B2E001C01D92A632B207E1F70E9449
:10012000D7020C948E070C9400000F931F93CF936B
:10013000DF93EC01FC0101900020E9F731978F017A
:10014000081B190B1016110664F4080F191F69918A
:1001500080912406909125060E94DA01C017D107EC
:10016000B1F7DF91CF911F910F91089584B18FEF77
:1001700084B9089511B80895ECE7F0E080818064B7
:100180008083EAE7F0E0808187688083089590911A
:100190007C00987F8770892B80937C0080917A0007
:1001A000876480937A0080917A0086FDFCCF8091ED
:1001B0007800909179000895EF92FF920F931F932A
:1001C000CF93DF93EC019881E0E0F0E09B3339F1CD
:1001D0009A3309F444C0E130F10509F44AC0E23031
:1001E000F10564F1E230F10509F452C0E330F105A4
:1001F00069F778012196F70191937F01DE018F0164
:1002000099919B3361F0E4E0F0E09A3351F1F7010A
:1002100091937F01DE018F0199919B33A1F7FB013F
:100220001082FA011082F9011082F8011082DF9128
:10023000CF911F910F91FF90EF900895309731F675
:100240007B012196F70191937F01DE01BF01999116
:100250009B3329F3E1E0F0E09A33A1F702C0319635
:10026000DE01ED01219611969C91E130F10509F036
:10027000B6CF7A012196F70191937F01DE01AF019C
:1002800099919B3361F2E2E0F0E09A33A1F7E9CF74
:1002900079012196F70191937F01DE019F019991E8
:1002A0009B3309F4BCCFE3E0F0E09A3399F7D9CF60
:1002B000DC01FB019C918081992371F098130CC0A3
:1002C000119603C0F901981307C09F012F5F3F4F9C
:1002D0009D9181819111F6CF981B892F0895CF931D
:1002E000DF93FC011082EC0108C08A3071F08D3080
:1002F00061F0882351F089931882809124069091AF
:1003000025060E94FF018F3F81F7DF91CF9108956D
:100310008DEF8093800081EC8093B00089E0809322
:10032000810081E08093B1008FEF8093B3008093D0
:100330008A008093880080938C0008951092210693
:1003400010922006109218041092190410921A04A8
:1003500010921B0610921C0610921D061092C500EA
:1003600087E68093C40086E08093C20088E980938A
:10037000C100789488E192E0089580E091E00895CA
:1003800080E091E008958B5F9B4FFC01808190E0BD
:1003900008958E5F9D4FFC01808190E008958E5FEF
:1003A0009D4FFC01908120E031E0A901491B5109DA
:1003B000CA010895CF93DF939C01EC01CE5FDD4F1E
:1003C0008881F894D901AF5FBD4F9C91E92FF0E08F
:1003D000EE0FFF1FE20FF31F70E0718360838C91BB
:1003E0008F5F8C938C9188818F5F88837894E1EC08
:1003F000F0E0808180628083DF91CF910895CF9378
:10040000DF939C01EC01CB5FDB4F88818823E9F30C
:10041000F894D901AD5FBB4F9C91E92FF0E0EE0F4E
:10042000FF1FE20FF31FED5FFD4F80819C919F5FE7
:100430009C939C919881915098837894DF91CF916F
:1004400008951F920F920FB60F9211240BB60F92C0
:100450008F939F93AF93BF93CF93DF93EF93FF93CC
:100460008091C600CDE1D6E09881ACE1B6E0EC9198
:10047000F0E0EE0FFF1FE55EFB4F90E0918380837D
:100480008C918F5F8C938C9188818F5F8883FF9193
:10049000EF91DF91CF91BF91AF919F918F910F908D
:1004A0000BBE0F900FBE0F901F9018951F920F92CA
:1004B0000FB60F9211240BB60F928F93EF93FF9309
:1004C00080911A04882301F1E0911804F0E0EE0F06
:1004D000FF1FE85EFD4F80818093C6008091180465
:1004E0008F5F809318048091180480911A048150C2
:1004F00080931A04FF91EF918F910F900BBE0F9094
:100500000FBE0F901F9018958091C1008F7D809332
:10051000C100F0CFE9ECF0E0808188618083EAECF3
:10052000F0E080818660808387E68093CC00109223
:10053000CD0008959091C80095FFFCCF8093CE0028
:1005400008958091C80087FFFCCF8091CE00089568
:10055000FC012081222351F031969091C80095FF33
:10056000FCCF2093CE0021912111F7CF0895FC01FB
:100570009091C80097FFFCCF2091CE009091C800C9
:1005800095FFFCCF2093CE002A3041F02D3031F082
:10059000273721F0222339F02193EACF11929E2FA1
:1005A000981B892F08959E2F981B892F0895CF930C
:1005B000DF93CDB7DEB7C550D6400FB6F894DEBF97
:1005C0000FBECDBF0E948A02CE018F5F9A4F0E945C
:1005D000B702BE016F5F7A4FCE018F5F9B4F0E94C3
:1005E000960480E092E00E94A802CE018F5F9A4FAD
:1005F0000E94A80284B18FEF84B911B890917C0059
:10060000906490937C0090917A00976890937A0020
:100610009DEF9093800091EC9093B00099E09093BF
:10062000810091E09093B1008093B30080938A00A1
:100630008093880080938C008E010F5F194F88246F
:100640008394912CCE018F5F9A4F0E94B702CE0106
:100650008F5F9A4F0E94A802CF5FDA4F8881C15006
:10066000D54020E030E0AE014F5F5E4F5A01BE0141
:100670006F5F7D4FDE0111967D01FE01EF5FFC4F44
:100680006F01FE5F8B33E1F18A3309F4A4C021309E
:10069000310501F1223031050CF485C022303105DD
:1006A00009F4A1C02330310569F7A5013196DA01BB
:1006B0008D93AD01DF015A0181918B3309F124E063
:1006C00030E08A33A1F7FD01319611968C912130EB
:1006D000310501F7A7013196DA018D93AD01DF01F4
:1006E0007A0181918B3361F022E030E08A3359F353
:1006F000DA018D93AD01DF017A0181918B33A1F78E
:10070000F6011082D7011C92FB011082D5011C92C8
:10071000CE018F5F9C4F0E94A802CE0101960E94DD
:10072000A802CE018F5F9D4F0E94A802CE018F5F6D
:100730009E4F0E94A802CE018F5F9E4F0E946F04C1
:100740007C01BE016F5F7B4FCE018F5F9C4F0E948B
:100750008D04892B09F076CFCF5FDD4F2881C15002
:10076000D24030E020533109898190E0C097813038
:10077000910509F474C08230910509F448C0892BB1
:1007800009F060CF243031050CF080C01E141F0426
:100790000CF093C035B1C40101C0880F2A95EAF767
:1007A000832B85B94FCF2115310509F06BCFA601F9
:1007B0003196DA018D93AD01DF016A0181918B33AE
:1007C00009F49ECF21E030E08A3399F7FD0131969C
:1007D00011968C917CCF2F5F3F4FDF01FD01319649
:1007E00011968C9174CFAB013196DA018D93AD01E6
:1007F000DF01BA0181918B3309F482CF23E030E02D
:100800008A3399F7FD01319611968C9160CF8091D2
:100810007C00887F2770282B20937C0080917A00B1
:10082000876480937A0080917A0086FDFCCF809166
:100830007800909179009F938F9382E192E09F934B
:100840008F931F930F930E94A504C8010E94A802D2
:100850000F900F900F900F900F900F90F3CE02C05B
:10086000880F991F2A95E2F78093220620B130E085
:1008700028233923992728173907A1F064E78091A5
:100880002406909125060E94DA01DCCE2430310541
:1008900089F025303105E9F026303105E9F0E092A4
:1008A0008C00D0CE69E680912406909125060E94A6
:1008B000DA01C8CEE092B300C5CE85B1F40102C022
:1008C000EE0FFF1F2A95E2F79F012095822385B93D
:1008D000B9CEE0928800B6CEE0928A00B3CEFC0199
:1008E00088279927E89421912032E9F3293010F0E4
:1008F0002E30C8F32B3241F02D3239F4689404C005
:100900000E949D04820F911D219120532A30C0F333
:100910001EF4909581959F4F0895FB01DC018D9108
:10092000019080190110D9F3990B0895FB01DC01A6
:1009300001900D920020E1F708957AE0979F902DA5
:10094000879F802D910D112408950F931F93CF93AE
:10095000DF93CDB7DEB72E970FB6F894DEBF0FBE8C
:10096000CDBF0E891F8986E08C831A8309838FEFA0
:100970009FE79E838D83AE01465E5F4F688D798DC4
:10098000CE0101960E94D404EF81F885E00FF11F9B
:1009900010822E960FB6F894DEBF0FBECDBFDF914A
:1009A000CF911F910F9108952F923F924F925F9296
:1009B0006F927F928F929F92AF92BF92CF92DF926F
:1009C000EF92FF920F931F93CF93DF93CDB7DEB7D4
:1009D0002B970FB6F894DEBF0FBECDBF6C017B0125
:1009E0008A01FC0117821682838181FFCCC1CE016E
:1009F00001963C01F6019381F70193FD859193FFE8
:100A000081917F01882309F4BAC1853239F493FDBD
:100A1000859193FF81917F01853229F4B60190E0A1
:100A20000E94F406E7CF912C212C312CFFE1F31525
:100A3000D8F08B3279F038F4803279F08332A1F437
:100A4000232D20611DC08D3261F0803369F4232D88
:100A5000216016C0832D8260382EE32DE4603E2E87
:100A60002AC0F32DF8601DC037FC2DC020ED280FE3
:100A70002A3040F08E32B9F436FC81C1232D206437
:100A8000322E19C036FE06C08AE0989E200D112431
:100A9000922E11C0EAE02E9E200D1124222EF32D5D
:100AA000F0623F2E08C08C3621F4832D8068382EEA
:100AB00002C0883641F4F70193FD859193FF81913F
:100AC0007F018111B3CF982F9F7D9554933028F4E7
:100AD0000C5F1F4F9FE399830DC0833631F083373E
:100AE00071F0833509F059C021C0F80180818983F4
:100AF0000E5F1F4F88248394912C530113C028014B
:100B0000F2E04F0E511CF801A080B18036FE03C008
:100B1000692D70E002C06FEF7FEFC5010E94E9060A
:100B20004C018201F32DFF773F2E16C0280122E0F1
:100B3000420E511CF801A080B18036FE03C0692D21
:100B400070E002C06FEF7FEFC5010E94DE064C012E
:100B5000F32DF0683F2E820133FC1BC0822D90E004
:100B600088169906B0F4B60180E290E00E94F4067F
:100B70002A94F4CFF50137FC859137FE81915F010E
:100B8000B60190E00E94F40621102A9421E0821A16
:100B900091088114910471F7E8C0843611F0893608
:100BA00041F5F80137FE07C0608171818281938130
:100BB0000C5F1F4F08C060817181072E000C880BED
:100BC000990B0E5F1F4FF32DFF763F2E97FF09C045
:100BD00090958095709561957F4F8F4F9F4FF068EE
:100BE0003F2E2AE030E0A3010E943007882E8618AD
:100BF00045C0853731F4232D2F7EB22E2AE030E018
:100C000025C0932D997FB92E8F36C1F018F4883501
:100C100079F0B5C0803719F0883721F0B0C0E92FDE
:100C2000E061BE2EB4FE0DC0FB2DF460BF2E09C0E6
:100C300034FE0AC0292F2660B22E06C028E030E01C
:100C400005C020E130E002C020E132E0F801B7FE4B
:100C500007C060817181828193810C5F1F4F06C044
:100C60006081718180E090E00E5F1F4FA3010E94C0
:100C70003007882E8618FB2DFF773F2E36FE0DC0DD
:100C8000232D2E7FA22E891458F434FE0BC032FC83
:100C900009C0832D8E7EA82E05C0B82CA32C03C0BE
:100CA000B82C01C0B92CA4FE0FC0FE01E80DF11D47
:100CB0008081803321F49A2D997EA92E09C0A2FE4D
:100CC00006C0B394B39404C08A2D867809F0B39417
:100CD000A3FC11C0A0FE06C0B21488F4280C922C0C
:100CE0009B180EC0B21460F4B60180E290E00E943E
:100CF000F406B394F7CFB21418F42B1802C0982C52
:100D0000212CA4FE10C0B60180E390E00E94F406FE
:100D1000A2FE17C0A1FC03C088E790E002C088E5EE
:100D200090E0B6010CC08A2D867859F0A1FE02C071
:100D30008BE201C080E2A7FC8DE2B60190E00E9448
:100D4000F406891438F4B60180E390E00E94F406BA
:100D50009A94F7CF8A94F301E80DF11D8081B601D2
:100D600090E00E94F4068110F5CF222009F442CED3
:100D7000B60180E290E00E94F4062A94F6CFF601D4
:100D80008681978102C08FEF9FEF2B960FB6F89464
:100D9000DEBF0FBECDBFDF91CF911F910F91FF90AE
:100DA000EF90DF90CF90BF90AF909F908F907F900B
:100DB0006F905F904F903F902F900895FC010590A9
:100DC000615070400110D8F7809590958E0F9F1F4D
:100DD0000895FC016150704001900110D8F7809592
:100DE00090958E0F9F1F08950F931F93CF93DF93BE
:100DF000FB01238121FD03C08FEF9FEF2CC022FF59
:100E000016C046815781248135814217530744F427
:100E1000A081B1819D012F5F3F4F318320838C934F
:100E2000268137812F5F3F4F3783268314C08B0184
:100E3000EC01FB010084F185E02D1995892BE1F689
:100E4000D80116968D919C911797019617969C93B1
:100E50008E931697CE01DF91CF911F910F91089538
:100E6000FA01AA27283051F1203181F1E8946F93DB
:100E70006E7F6E5F7F4F8F4F9F4FAF4FB1E03ED081
:100E8000B4E03CD0670F781F891F9A1FA11D680F1F
:100E9000791F8A1F911DA11D6A0F711D811D911D52
:100EA000A11D20D009F468943F912AE0269F1124C7
:100EB0003019305D3193DEF6CF010895462F47702B
:100EC000405D4193B3E00FD0C9F7F6CF462F4F7086
:100ED000405D4A3318F0495D31FD4052419302D0E4
:100EE000A9F7EACFB4E0A69597958795779567958A
:100EF000BA95C9F700976105710508959B01AC018A
:100F00000A2E06945795479537952795BA95C9F7B0
:100F1000620F731F841F951FA01D0895F894FFCFC3
:100F20006E6F6D6520646973706F73697469766F35
:080F30000A00253034640000C2
:00000001FF
