:100000000C9472000C9493000C9493000C94930045
:100010000C9493000C9493000C9493000C94930014
:100020000C9493000C9493000C9493000C94930004
:100030000C9493000C9493000C9493000C949300F4
:100040000C9493000C9493000C9493000C949300E4
:100050000C9493000C9493000C9493000C949300D4
:100060000C9493000C9493000C9493000C949300C4
:100070000C9493000C9493000C9493000C949300B4
:100080000C9493000C9493000C9493000C949300A4
:100090000C94C5020C94FA020C9493000C949300F7
:1000A0000C9493000C9493000C9493000C94930084
:1000B0000C9493000C9493000C9493000C94930074
:1000C0000C9493000C9493000C9493000C94930064
:1000D0000C9493000C9493000C9493000C94930054
:1000E0000C94930011241FBECFEFD1E2DEBFCDBF31
:1000F00000E00CBF12E0A0E0B2E0E0EAF1E100E0D5
:100100000BBF02C007900D92AA31B107D9F726E0C4
:10011000AAE1B2E001C01D92A832B207E1F70E9445
:100120002E030C94CE080C940000CF92DF92EF9235
:10013000FF920F931F93CF93DF936C017B011616F1
:100140001706E4F48C01C0E0D0E0F999FECFCE01AF
:100150000E94B808F80181938F012196EC16FD06E4
:10016000A1F7F601EE0DFF1D1082DF91CF911F91D7
:100170000F91FF90EF90DF90CF900895E12CF12C3C
:10018000F0CFCF92DF92EF92FF920F931F93CF9316
:10019000DF936C017B01F999FECF80E090E00E9433
:1001A000B8088F3F59F1C0E0D0E02196F999FECF11
:1001B000CE010E94B8088F3FC1F7CE011E141F0464
:1001C00084F48601EC0EFD1EF999FECFF8016191D1
:1001D0008F01CE010E94C0082196CE15DF05A1F740
:1001E000CE01F999FECF6BE3DF91CF911F910F9173
:1001F000FF90EF90DF90CF900C94C00880E090E0EB
:10020000C0E0D0E0DBCFFF920F931F93CF93DF933B
:100210001816190674F4F62E8C01C0E0D0E0F99996
:10022000FECF6F2DCE010E94C00821960C171D072E
:10023000B1F7DF91CF911F910F91FF900895CF9368
:10024000DF93F999FECF80E090E00E94B808C0E00B
:10025000D0E08F3F41F02196F999FECFCE010E9468
:10026000B8088F3FC1F7CE01DF91CF9108950F936A
:100270001F93CF93DF93EC01FC0101900020E9F77D
:1002800031978F01081B190B1016110664F4080F23
:10029000191F699180912606909127060E947E027F
:1002A000C017D107B1F7DF91CF911F910F9108953A
:1002B00084B18FEF84B9089511B88FEF82B9089592
:1002C000ECE7F0E0808180648083EAE7F0E0808101
:1002D00087688083089590917C00987F8770892B30
:1002E00080937C0080917A00876480937A0080916B
:1002F0007A0086FDFCCF8091780090917900089576
:10030000EF92FF920F931F93CF93DF93EC019881AD
:10031000E0E0F0E09B3339F19A3309F444C0E13076
:10032000F10509F44AC0E230F10564F1E230F1056B
:1003300009F452C0E330F10569F778012196F7011D
:1003400091937F01DE018F0199919B3361F0E4E08D
:10035000F0E09A3351F1F70191937F01DE018F01B3
:1003600099919B33A1F7FB011082FA011082F901E8
:100370001082F8011082DF91CF911F910F91FF90B1
:10038000EF900895309731F67B012196F701919314
:100390007F01DE01BF0199919B3329F3E1E0F0E099
:1003A0009A33A1F702C03196DE01ED012196119634
:1003B0009C91E130F10509F0B6CF7A012196F70161
:1003C00091937F01DE01AF0199919B3361F2E2E0ED
:1003D000F0E09A33A1F7E9CF79012196F7019193E3
:1003E0007F01DE019F0199919B3309F4BCCFE3E0CB
:1003F000F0E09A3399F7D9CFDC01FB019C91808121
:10040000992371F098130CC0119603C0F901981349
:1004100007C09F012F5F3F4F9D9181819111F6CFC2
:10042000981B892F0895CF93DF93FC011082EC0174
:1004300008C08A3071F08D3061F0882351F08993C3
:10044000188280912606909127060E94A3028F3F72
:1004500081F7DF91CF9108958DEF8093800081EC3B
:100460008093B00089E08093810081E08093B100A7
:100470008FEF8093B30080938A00809388008093ED
:100480008C000895109223061092220610921A04EE
:1004900010921B0410921C0410921D0610921E064E
:1004A00010921F061092CD0087E68093CC0086E064
:1004B0008093CA0088E98093C90078948AE192E029
:1004C000089580E091E0089580E091E008958B5FC9
:1004D0009B4FFC01808190E008958E5F9D4FFC0151
:1004E000808190E008958E5F9D4FFC01908120E017
:1004F00031E0A901491B5109CA010895CF93DF9347
:100500009C01EC01CE5FDD4F8881F894D901AF5F8B
:10051000BD4F9C91E92FF0E0EE0FFF1FE20FF31F9C
:1005200070E0718360838C918F5F8C938C91888154
:100530008F5F88837894E9ECF0E08081806280832B
:10054000DF91CF910895CF93DF939C01EC01CB5FB6
:10055000DB4F88818823E9F3F894D901AD5FBB4F65
:100560009C91E92FF0E0EE0FFF1FE20FF31FED5F0C
:10057000FD4F80819C919F5F9C939C9198819150AD
:1005800098837894DF91CF9108951F920F920FB6C0
:100590000F9211240BB60F928F939F93AF93BF933B
:1005A000CF93DF93EF93FF938091CE00CFE1D6E01E
:1005B0009881AEE1B6E0EC91F0E0EE0FFF1FE35E54
:1005C000FB4F90E0918380838C918F5F8C938C9113
:1005D00088818F5F8883FF91EF91DF91CF91BF91E9
:1005E000AF919F918F910F900BBE0F900FBE0F9008
:1005F0001F9018951F920F920FB60F9211240BB6F1
:100600000F928F93EF93FF9380911C04882301F145
:10061000E0911A04F0E0EE0FFF1FE65EFD4F8081CF
:100620008093CE0080911A048F5F80931A0480918A
:100630001A0480911C04815080931C04FF91EF9157
:100640008F910F900BBE0F900FBE0F901F901895BB
:100650008091C9008F7D8093C900F0CFCF93DF9345
:10066000CDB7DEB7C950D6410FB6F894DEBF0FBE86
:10067000CDBF40E855E260E070E085E092E00E9486
:100680004202909327068093260600E010E0F99935
:10069000FECF6FEFC8010E94C0080F5F1F4F083EDA
:1006A00023E01207A1F7CE018F5F9A4E0E9413023A
:1006B0002E013FEF431A3BEE530ABE016F5F7A4EA5
:1006C000C2010E94C005F20101900020E9F73197B4
:1006D000BF0164197509C2010E94C10084B18FEF86
:1006E00084B911B882B990917C00906490937C0099
:1006F00090917A00976890937A009DEF9093800094
:1007000091EC9093B00099E09093810091E09093E8
:10071000B1008093B30080938A0080938800809317
:100720008C008E010F5F1E4EAE014F5F5D4E3A0191
:10073000CE018F5F994E1C01DE011196CA5FD94E22
:10074000B983A883C650D641CF5FDA4E1882C15014
:10075000D541FE01EF5FFA4E7F010AC08A3081F079
:100760008D3071F0882361F0F70181937F01108251
:1007700080912606909127060E94A3028F3F71F771
:10078000CF5FDA4E8881C150D54120E030E0B8011A
:100790007301AE014F5F5F4E6A01DE01AF5FBC4E79
:1007A0005D01FE01EF5FFA4E8B33E1F18A3309F40C
:1007B000F4C02130310501F1223031050CF4D5C0EF
:1007C0002230310509F4F1C02330310569F7AB015E
:1007D0003196DA018D93AD01DF01BA0181918B333E
:1007E00009F124E030E08A33A1F7FD01319611963A
:1007F0008C912130310501F7A6013196DA018D93F4
:10080000AD01DF016A0181918B3361F022E030E0BC
:100810008A3359F3DA018D93AD01DF016A018191C9
:100820008B33A1F7F5011082D6011C92F7011082DB
:10083000DB011C92C8010E9499057C01B201CE0126
:100840008F5F9C4E0E94B705892B09F0C2C0F3014F
:10085000808190E09C0120533109CF5FDF4E888179
:10086000C150D04190E0C0978130910509F41BC17F
:100870000CF4C2C08230910509F4D3C0039709F08B
:1008800063CF1F930F9381E192E09F938F937F92A9
:100890006F9283E192E09F938F93E1E0F0E0EC0FA1
:1008A000FD1FFF93EF930E94CF05CA5FD94EE881E9
:1008B000F981C650D64101900020E9F731979F0198
:1008C000CA5FD94E48815981C650D641241B350B89
:1008D000C85FD94E39832883C850D6410FB6F894E3
:1008E000DEBF0FBECDBFF999FECF80E090E00E9441
:1008F000B8088F3F09F415C1E12CF12C9FEFE91ADC
:10090000F90AF999FECFC7010E94B8088F3FB1F7E5
:10091000C701C85FD94EA881B981C850D6411A16FF
:100920001B06ECF4FE0131965F014F018A0E9B1EFF
:100930006701F999FECFD5016D915D01C6010E9455
:10094000C008BFEFCB1ADB0AA814B90491F7C85F3F
:10095000D94E88819981C850D6418E0D9F1DF99935
:10096000FECF6BE30E94C008EFCE2115310509F0E0
:100970001BCFA5013196DA018D93AD01DF015A013C
:1009800081918B3309F44ECF21E030E08A3399F71F
:10099000FD01319611968C912CCF2F5F3F4FDF01D7
:1009A000FD01319611968C9124CFA7013196DA0181
:1009B0008D93AD01DF017A0181918B3309F432CF40
:1009C00023E030E08A3399F7FD01319611968C913E
:1009D00010CF80E0E82E82E0F82EF70161917F01D0
:1009E00080912606909127060E947E02F4E0EF1681
:1009F000F2E0FF0691F7A8CE892B09F0A5CE2430AE
:100A000031050CF067C01E141F040CF077C035B11F
:100A100081E090E001C0880F2A95EAF7832B85B921
:100A200093CE80917C00982F987F822F8770892B9E
:100A300080937C0080917A00876480937A00809113
:100A40007A0086FDFCCF80917800909179009F9389
:100A50008F938CE092E09F938F933F922F920E940E
:100A6000CF05F10101900020E9F731976F01C2181D
:100A7000D3080F900F900F900F900F900F901C14B1
:100A80001D040CF061CEC20CD31C7101D7016D9115
:100A90007D0180912606909127060E947E02EC142B
:100AA000FD04A1F751CE02C0880F991F2A95E2F7E5
:100AB0008093240620B130E0282339239927281772
:100AC0003907A1F060E380912606909127060E94E5
:100AD0007E023ACE24303105F1F025303105F1F0B7
:100AE0002630310519F1E0928C002ECE61E3809121
:100AF0002606909127060E947E0226CE85B141E00F
:100B000050E002C0440F551F2A95E2F79A01209544
:100B1000822385B919CEE092B30016CEE092880008
:100B200013CE80E090E0E12CF12CF3CEE0928A002D
:100B30000BCEFC0188279927E89421912032E9F314
:100B4000293010F02E30C8F32B3241F02D3239F419
:100B5000689404C00E94C705820F911D2191205303
:100B60002A30C0F31EF4909581959F4F0895FB01A4
:100B7000DC018D91019080190110D9F3990B089532
:100B8000FB01DC0101900D920020E1F708957AE06D
:100B9000979F902D879F802D910D112408950F937D
:100BA0001F93CF93DF93CDB7DEB72E970FB6F89490
:100BB000DEBF0FBECDBF0E891F8986E08C831A83EE
:100BC00009838FEF9FE79E838D83AE01465E5F4F63
:100BD000688D798DCE0101960E94FE05EF81F88522
:100BE000E00FF11F10822E960FB6F894DEBF0FBEF5
:100BF000CDBFDF91CF911F910F9108952F923F921A
:100C00004F925F926F927F928F929F92AF92BF921C
:100C1000CF92DF92EF92FF920F931F93CF93DF93C8
:100C2000CDB7DEB72B970FB6F894DEBF0FBECDBFA2
:100C30006C017B018A01FC0117821682838181FF8E
:100C4000CCC1CE0101963C01F6019381F70193FDE1
:100C5000859193FF81917F01882309F4BAC1853280
:100C600039F493FD859193FF81917F01853229F4B9
:100C7000B60190E00E941E08E7CF912C212C312C68
:100C8000FFE1F315D8F08B3279F038F4803279F047
:100C90008332A1F4232D20611DC08D3261F0803399
:100CA00069F4232D216016C0832D8260382EE32D38
:100CB000E4603E2E2AC0F32DF8601DC037FC2DC025
:100CC00020ED280F2A3040F08E32B9F436FC81C175
:100CD000232D2064322E19C036FE06C08AE0989E6D
:100CE000200D1124922E11C0EAE02E9E200D112419
:100CF000222EF32DF0623F2E08C08C3621F4832D76
:100D00008068382E02C0883641F4F70193FD859142
:100D100093FF81917F018111B3CF982F9F7D9554CF
:100D2000933028F40C5F1F4F9FE399830DC08336E7
:100D300031F0833771F0833509F059C021C0F801D3
:100D4000808189830E5F1F4F88248394912C5301E7
:100D500013C02801F2E04F0E511CF801A080B180B1
:100D600036FE03C0692D70E002C06FEF7FEFC50152
:100D70000E9413084C018201F32DFF773F2E16C00D
:100D8000280122E0420E511CF801A080B18036FEFD
:100D900003C0692D70E002C06FEF7FEFC5010E94B4
:100DA00008084C01F32DF0683F2E820133FC1BC074
:100DB000822D90E088169906B0F4B60180E290E0AA
:100DC0000E941E082A94F4CFF50137FC859137FE66
:100DD00081915F01B60190E00E941E0821102A94C3
:100DE00021E0821A91088114910471F7E8C08436D9
:100DF00011F0893641F5F80137FE07C06081718135
:100E0000828193810C5F1F4F08C060817181072E22
:100E1000000C880B990B0E5F1F4FF32DFF763F2EB2
:100E200097FF09C090958095709561957F4F8F4F82
:100E30009F4FF0683F2E2AE030E0A3010E945A083D
:100E4000882E861845C0853731F4232D2F7EB22E8B
:100E50002AE030E025C0932D997FB92E8F36C1F05E
:100E600018F4883579F0B5C0803719F0883721F04B
:100E7000B0C0E92FE061BE2EB4FE0DC0FB2DF460C2
:100E8000BF2E09C034FE0AC0292F2660B22E06C02C
:100E900028E030E005C020E130E002C020E132E08F
:100EA000F801B7FE07C060817181828193810C5F78
:100EB0001F4F06C06081718180E090E00E5F1F4F80
:100EC000A3010E945A08882E8618FB2DFF773F2E1B
:100ED00036FE0DC0232D2E7FA22E891458F434FE29
:100EE0000BC032FC09C0832D8E7EA82E05C0B82C05
:100EF000A32C03C0B82C01C0B92CA4FE0FC0FE0166
:100F0000E80DF11D8081803321F49A2D997EA92E60
:100F100009C0A2FE06C0B394B39404C08A2D86789B
:100F200009F0B394A3FC11C0A0FE06C0B21488F46B
:100F3000280C922C9B180EC0B21460F4B60180E20B
:100F400090E00E941E08B394F7CFB21418F42B1847
:100F500002C0982C212CA4FE10C0B60180E390E0C2
:100F60000E941E08A2FE17C0A1FC03C088E790E003
:100F700002C088E590E0B6010CC08A2D867859F051
:100F8000A1FE02C08BE201C080E2A7FC8DE2B601A7
:100F900090E00E941E08891438F4B60180E390E0C6
:100FA0000E941E089A94F7CF8A94F301E80DF11D70
:100FB0008081B60190E00E941E088110F5CF2220AA
:100FC00009F442CEB60180E290E00E941E082A9405
:100FD000F6CFF6018681978102C08FEF9FEF2B96A7
:100FE0000FB6F894DEBF0FBECDBFDF91CF911F913A
:100FF0000F91FF90EF90DF90CF90BF90AF909F90B8
:101000008F907F906F905F904F903F902F900895BA
:10101000FC010590615070400110D8F780959095C3
:101020008E0F9F1F0895FC016150704001900110C8
:10103000D8F7809590958E0F9F1F08950F931F935B
:10104000CF93DF93FB01238121FD03C08FEF9FEF3F
:101050002CC022FF16C0468157812481358142175A
:10106000530744F4A081B1819D012F5F3F4F31832D
:1010700020838C93268137812F5F3F4F37832683D0
:1010800014C08B01EC01FB010084F185E02D199562
:10109000892BE1F6D80116968D919C9117970196B0
:1010A00017969C938E931697CE01DF91CF911F9147
:1010B0000F910895FA01AA27283051F1203181F1CA
:1010C000E8946F936E7F6E5F7F4F8F4F9F4FAF4F50
:1010D000B1E03ED0B4E03CD0670F781F891F9A1F63
:1010E000A11D680F791F8A1F911DA11D6A0F711D17
:1010F000811D911DA11D20D009F468943F912AE023
:10110000269F11243019305D3193DEF6CF0108950A
:10111000462F4770405D4193B3E00FD0C9F7F6CF3B
:10112000462F4F70405D4A3318F0495D31FD405203
:10113000419302D0A9F7EACFB4E0A6959795879599
:1011400077956795BA95C9F7009761057105089578
:101150009B01AC010A2E0694579547953795279524
:10116000BA95C9F7620F731F841F951FA01D0895BC
:10117000F999FECF92BD81BDF89A992780B508955F
:10118000262FF999FECF1FBA92BD81BD20BD0FB6A3
:10119000F894FA9AF99A0FBE01960895F894FFCF41
:1011A0006E61636B00756172745F3000253034646A
:0A11B000003A002573257325730033
:00000001FF
